:020000040800F2
:10000000F034002031020008390200083B020008E9
:100010003D0200083F020008410200080000000005
:10002000000000000000000000000000990100082E
:100030004502000800000000DD010008551200081C
:100040004B0200084B0200084B0200084B0200085C
:100050004B0200084B0200084B0200084B0200084C
:100060004B0200084B0200084B0200084B0200083C
:100070004B0200084B0200084B0200084B0200082C
:100080004B0200084B0200084B0200084B0200081C
:100090004B0200084B0200084B0200084B0200080C
:1000A0004B0200084B0200084B0200084B020008FC
:1000B0004B0200084B0200084B0200084B020008EC
:1000C0004B0200084B0200084B0200084B020008DC
:1000D0004B0200084B0200084B0200084B020008CC
:1000E0004B0200084B0200084B02000800F002F827
:1000F00000F03FF80AA090E8000C82448344AAF183
:100100000107DA4501D100F034F8AFF2090EBAE880
:100110000F0013F0010F18BFFB1A43F0010318473B
:10012000EC3500000C360000103A24BF78C878C1C6
:10013000FAD8520724BF30C830C144BF04680C60ED
:10014000704700000023002400250026103A28BF35
:1001500078C1FBD8520728BF30C148BF0B60704739
:10016000642900F0CD80002070471FB51FBD10B579
:1001700010BD00F048FA114603B401F0AAFA03BC1E
:10018000FFF7F3FF01F0C2FA00F062FA03B4FFF7E1
:10019000EEFF03BC00F066FA224B19680868B0E86D
:1001A000F00F80F30988BFF36F8F4FF0000080F3EA
:1001B00011884EF00D0E70470000000006480068E0
:1001C000006880F3088862B661B6BFF34F8FBFF353
:1001D0006F8F00DF00BF00BF08ED00E0EFF3098084
:1001E000BFF36F8F0F4B1A6820E9F00F106008B54E
:1001F0004FF0100080F31188BFF34F8FBFF36F8F64
:1002000002F050FB4FF0000080F31188BDE8084079
:1002100019680868B0E8F00F80F30988BFF36F8FA2
:10022000704700BF58000020EFF3058070470000C2
:100230000948804709480047FEE7FEE7FEE7FEE77A
:10024000FEE7FEE7FEE7FEE7FEE7FEE704480549B6
:10025000054A064B7047000011130008ED00000826
:10026000F02E0020F0340020F0300020F03000208C
:100270000FB41CB5074B06AA7B446946009005984D
:1002800000F071F90020694600F080F91CBC5DF8AF
:1002900014FB0000110300002DE9F0410E46044656
:1002A000002020622046E168884730B3252805D029
:1002B000D4E901219047206A401CF2E7E16820461A
:1002C00000278847050018D0A5F14100192802D859
:1002D00020354FF400673246294620462760FFF755
:1002E0003FFF40B1012804D0F61D26F0070608366E
:1002F000D8E7361DD6E72846DAE7206ABDE8F08160
:100300002DE9F0410646002410687529314616A5EE
:1003100010D0AFF30080002802DA404213A507E0B6
:1003200031688A0701D512A502E0490704D511A555
:10033000012401E0AFF3008000210A2206F1240726
:1003400009E0B0FBF2FCB0FBF2F302FB1C00303022
:1003500078541846491C0028F3D123462A463046D3
:10036000BDE8F04100F0A1B8000000002D00000041
:100370002B00000020000000032A40F2308010F023
:10038000030C00F0158011F8013BBCF1020F624430
:1003900098BF11F801CB00F8013B38BF11F8013BC1
:1003A000A2F1040298BF00F801CB38BF00F8013B6E
:1003B00011F0030300F0EF80083AC0F0088051F814
:1003C000043B083A51F804CBA0E80810F5E7121DE9
:1003D0005CBF51F8043B40F8043BAFF30080D20708
:1003E00024BF11F8013B11F801CB48BF11F8012BD4
:1003F00024BF00F8013B00F801CB48BF00F8012BF7
:10040000704702F0FF0343EA032242EA024200F08F
:1004100002B84FF000020429C0F0128010F0030C63
:1004200000F01B80CCF1040CBCF1020F18BF00F8E7
:10043000012BA8BF20F8022BA1EB0C0100F00DB896
:100440005FEAC17C24BF00F8012B00F8012B48BFF4
:1004500000F8012B70474FF0000200B51346944698
:100460009646203922BFA0E80C50A0E80C50B1F10C
:100470002001BFF4F7AF090728BFA0E80C5048BF20
:100480000CC05DF804EB890028BF40F8042B08BFBE
:10049000704748BF20F8022B11F0804F18BF00F8BA
:1004A000012B70477047704770472DE9F0470D46A4
:1004B00099469246044600F124080168880604D54E
:1004C000E06921F01001216000E00120A84201DD77
:1004D000471B00E00027A1697A1902EB0900081AFE
:1004E000A0612078C00602D42046AFF30080002629
:1004F00008E0D4E901211AF806009047206A401C60
:10050000761C20624E45F4DB2078C0060AD52046D2
:10051000AFF3008006E0D4E9012130209047206A43
:10052000401C2062381EA7F10107F4DC07E0D4E983
:10053000012118F805009047206A401C2062281EFF
:10054000A5F10105F3DC2046AFF30080207800061A
:1005500002D50220BDE8F0870120FBE701694A1CB3
:1005600002610878704700B58FB0CDE901310021F4
:10057000059105497944CDE9031011466846FFF716
:100580008BFE0FB000BD0000E5FFFFFF0A6802F818
:10059000010B0A60704710B5203AC0F00B80B1E83B
:1005A0001850203AA0E81850B1E81850A0E81850A8
:1005B000BFF4F5AF5FEA027C24BFB1E81850A0E8B1
:1005C000185044BF18C918C0BDE810405FEA827CCB
:1005D00024BF51F8043B40F8043B08BF7047D207E2
:1005E00028BF31F8023B48BF11F8012B28BF20F883
:1005F000023B48BF00F8012B7047000000487047DD
:100600008C2E002070477546FFF7F8FFAE460500B8
:100610006946534620F00700854618B020B5FFF71D
:1006200015FEBDE820404FF000064FF000074FF0E8
:1006300000084FF0000B21F00701AC46ACE8C00900
:10064000ACE8C009ACE8C009ACE8C0098D46704709
:1006500010B50446AFF300802046BDE81040FFF718
:1006600095BD000001491820ABBEFEE72600020040
:1006700008B50121082000F0ADFC14208DF803001E
:100680004FF48070ADF8000003208DF80200694639
:10069000044800F0B5FA4FF48071024800F08FFB77
:1006A00008BD0000000C01402DE9FC4106464FF456
:1006B0008071F94800F081FB142001F00BF84FF431
:1006C0008071F54800F07BFB00214FF0804000F086
:1006D0005EFE06E04FF48071EF4800F065FB00B16C
:1006E00005E04FF0804000F04FFE0A28F2DB00BF2B
:1006F0004FF0804000F048FE04460A2C02DB002048
:10070000BDE8FC8100214FF0804000F040FE06E093
:100710004FF48071E04800F047FB00B905E04FF06E
:10072000804000F031FE2D28F2DB00BF4FF080400A
:1007300000F02AFE04462D2C01DA052C01DC0020F5
:10074000DEE700214FF0804000F021FE06E04FF48C
:100750008071D14800F028FB00B105E04FF08040E7
:1007600000F012FE5A28F2DB00BF4FF0804000F08C
:100770000BFE04465A2C01DA462C01DC0020BFE7B0
:1007800000214FF0804000F002FE06E04FF480713F
:10079000C14800F009FB00B905E04FF0804000F0CF
:1007A000F3FD5F28F2DB00BF4FF0804000F0ECFD6E
:1007B00004465F2C01DA4B2C01DC0020A0E7002569
:1007C00054E000214FF0804000F0E1FD06E04FF4DE
:1007D0008071B14800F0E8FA00B105E04FF08040C8
:1007E00000F0D2FD4128F2DB00BF4FF0804000F066
:1007F000CBFD0446412C01DA2D2C01DC00207FE7E3
:1008000000214FF0804000F0C2FD06E04FF48071FF
:10081000A14800F0C9FA00B905E04FF0804000F0AF
:10082000B3FD5028F2DB00BF4FF0804000F0ACFD7C
:100830000446502C01DA0A2C01DC002060E79DF808
:1008400000004006000E8DF800002D2C06DD9DF8FE
:10085000000040F001008DF8000005E09DF8000068
:1008600020F001008DF80000681CC5B2082DA8DB3F
:10087000002554E000214FF0804000F088FD06E0A4
:100880004FF48071844800F08FFA00B105E04FF01A
:10089000804000F079FD4128F2DB00BF4FF080403E
:1008A00000F072FD0446412C01DA2D2C01DC002001
:1008B00026E700214FF0804000F069FD06E04FF48C
:1008C0008071754800F070FA00B905E04FF0804083
:1008D00000F05AFD5028F2DB00BF4FF0804000F0DE
:1008E00053FD0446502C01DA0A2C01DC002007E7F6
:1008F0009DF801004006000E8DF801002D2C06DD4C
:100900009DF8010040F001008DF8010005E09DF820
:10091000010020F001008DF80100681CC5B2082D0F
:10092000A8DB002554E000214FF0804000F02FFDAF
:1009300006E04FF48071584800F036FA00B105E047
:100940004FF0804000F020FD4128F2DB00BF4FF067
:10095000804000F019FD0446412C01DA2D2C01DC09
:100960000020CDE600214FF0804000F010FD06E0B1
:100970004FF48071484800F017FA00B905E04FF0D5
:10098000804000F001FD5028F2DB00BF4FF08040B6
:1009900000F0FAFC0446502C01DA0A2C01DC00209D
:1009A000AEE69DF802004006000E8DF802002D2CE8
:1009B00006DD9DF8020040F001008DF8020005E020
:1009C0009DF8020020F001008DF80200681CC5B2FD
:1009D000082DA8DB002554E000214FF0804000F0F6
:1009E000D6FC06E04FF480712B4800F0DDF900B131
:1009F00005E04FF0804000F0C7FC4128F2DB00BF6B
:100A00004FF0804000F0C0FC0446412C01DA2D2C50
:100A100001DC002074E600214FF0804000F0B7FCBC
:100A200006E04FF480711C4800F0BEF900B905E003
:100A30004FF0804000F0A8FC5028F2DB00BF4FF0E0
:100A4000804000F0A1FC0446502C01DA0A2C01DCA5
:100A5000002055E69DF803004006000E8DF80300C7
:100A60002D2C06DD9DF8030040F001008DF80300F9
:100A700005E09DF8030020F001008DF80300681CDC
:100A8000C5B2082DA8DB002557E000214FF08040BB
:100A900000F07DFC09E00000000C01404FF4807183
:100AA000354800F081F900B105E04FF0804000F0DA
:100AB0006BFC4128F2DB00BF4FF0804000F064FC8B
:100AC0000446412C01DA2D2C01DC002018E600211F
:100AD0004FF0804000F05BFC06E04FF48071264848
:100AE00000F062F900B905E04FF0804000F04CFCE6
:100AF0005028F2DB00BF4FF0804000F045FC044678
:100B0000502C01DA0A2C01DC0020F9E59DF80400E4
:100B10004006000E8DF804002D2C06DD9DF8040023
:100B200040F001008DF8040005E09DF8040020F07D
:100B300001008DF80400681CC5B2082DA5DB9DF8E6
:100B400000009DF8011008449DF8021008449DF82B
:100B500003100844C7B29DF80400B84201D0002039
:100B6000CEE5002504E01DF805007055681CC5B2EF
:100B7000042DF8DB0120C3E5000C0140002107E053
:100B8000002200E0521C42F6FF239A42FAD3491C8D
:100B90008142F5D37047002105E0002200E0521C9D
:100BA0002A2AFCD3491C8142F7D3704708B501219A
:100BB000084600F00FFA0121082000F00BFA4EF26F
:100BC000F010ADF8000010208DF8030003208DF820
:100BD00002006946084800F013F80121042000F0E3
:100BE000F9F90620ADF8000000208DF803006946F1
:100BF000024800F005F808BD000C01400008014063
:100C00002DE9F041024600250026002000230024A3
:100C1000002791F803C00CF00F0591F803C00CF009
:100C2000100CBCF1000F03D091F802C04CEA05058E
:100C300091F800C0BCF1000F31D0146800202BE007
:100C40004FF0010C0CFA00F3B1F800C00CEA0306F7
:100C50009E4220D183004FF00F0C0CFA03F7BC43E7
:100C600005FA03FC4CEA040491F803C0BCF1280F18
:100C700006D14FF0010C0CFA00FCC2F814C00AE0D7
:100C800091F803C0BCF1480F05D14FF0010C0CFAEC
:100C900000FCC2F810C0401C0828D1D31460B1F881
:100CA00000C0BCF1FF0F34DD546800202EE000F1DD
:100CB000080C4FF0010808FA0CF3B1F800C00CEA78
:100CC00003069E4221D183004FF00F0C0CFA03F76C
:100CD000BC4305FA03FC4CEA040491F803C0BCF1E0
:100CE000280F05D100F1080C08FA0CF8C2F814809E
:100CF00091F803C0BCF1480F07D100F1080C4FF088
:100D0000010808FA0CF8C2F81080401C0828CED35D
:100D10005460BDE8F0810000F0B50A4600230024CD
:100D20000021002500F00046B6F1004F02D11D4E13
:100D3000F16901E01B4E7168C0F3034583B200F412
:100D40004016B6F5401F08D121F07061154E766847
:100D500026F07066134F7E6012E000F48016B6F540
:100D6000801F06D1032606FA05F4A14341F0706105
:100D700006E0460D360103FA06F6B14341F0706114
:100D800022B1460D360103FA06F6314300F0004663
:100D9000B6F1004F02D1034EF16101E0014E7160E6
:100DA000F0BD0000000001400246002093680B40A7
:100DB0000BB1012000E000207047416170470161E4
:100DC00070470AB1016100E04161704710B5002130
:100DD000012000F097F80520FFF7D0FE10BD0000BD
:100DE00010B54FF400510748FFF7E9FF0320FFF764
:100DF000D2FE4FF400510348FFF7DFFF3220FFF728
:100E0000CAFE10BD000C014070B504460E461EB966
:100E100004F18000C5B202E004F1C000C5B20120B7
:100E2000FFF7ACFE0021284600F06CF80520FFF724
:100E3000A5FE70BD10B5002000F046F81420FFF7A5
:100E40009DFE4FF400411648FFF7B7FF4FF4804175
:100E50001348FFF7B2FF4FF400511148FFF7ADFF01
:100E6000032000F031F8FFF7BBFF0120FFF793FEEE
:100E7000022000F029F8FFF7B3FF0520FFF78BFEF3
:100E80000021282000F03EF800210C2000F03AF864
:100E9000FFF79CFF0021062000F034F810BD000091
:100EA000000C014010B504460121204600F02AF84C
:100EB00010BD10B5044603E02078FFF7F3FF641C73
:100EC00020780028F8D110BD10B5044604F00102C6
:100ED00010210B48FFF775FFC4F34002202108489A
:100EE000FFF76FFFC4F3800240210548FFF769FF59
:100EF000C4F3C00280210248FFF763FF10BD000069
:100F0000000C014070B504460D462DB94FF4004168
:100F10000948FFF752FF04E04FF400410648FFF78D
:100F20004EFF2011FFF7D0FFFFF75AFF2046FFF7D3
:100F3000CBFFFFF755FF70BD000C014008B52DE059
:100F40004FF0FF3000230122032100901448006875
:100F500001F058FD044604F00100F8B100210846F4
:100F6000FFF752FF0F48FFF7A4FF00210920FFF70A
:100F70004BFF0DA0FFF79DFF01210020FFF744FF6D
:100F80000A48FFF796FF01210C20FFF73DFF08A05C
:100F9000FFF78FFF4FF4FA7001F0DEFAD0E70000A0
:100FA00008000020AC0000202500000010010020F7
:100FB0006F43000029B1064AD2690243044BDA614B
:100FC00004E0034AD2698243014BDA6170470000B2
:100FD0000010024029B1064A92690243044B9A610B
:100FE00004E0034A92698243014B9A617047000012
:100FF0000010024030B500210022002400232D4DB6
:101000006D6805F00C0121B1042905D0082923D110
:1010100005E0294D056022E0274D05601FE0254DC4
:101020006D6805F47012234D6D6805F48034022557
:1010300005EB92421CB9214D554305600BE01D4D57
:101040006D6805F400351DB11C4D5543056002E087
:10105000194D5543056002E0174D056000BF00BF04
:10106000144D6D6805F0F0010909154D6B5C0568BC
:10107000DD4045600F4D6D6805F4E061090A104DD3
:101080006B5C4568DD4085600A4D6D6805F4605114
:10109000C90A0B4D6B5C4568DD40C560054D6D6848
:1010A00005F44041890B074D6B5CC568B5FBF3F552
:1010B000056130BD0010024000127A0000093D00B9
:1010C0000D0000201D00002012E00A48FFF7ECFA96
:1010D0000848027808A10B48FFF7CAF8054882784B
:1010E00009A10D48FFF7C4F84FF4FA7001F034FA83
:1010F000EBE7000001000020446F20616D3A2025DD
:1011000064200000AC0000204E6869657420646FA4
:101110003A202564200000001001002008B51DE0E1
:101120004FF0FF3000230122032100900C4800689B
:1011300001F068FC044604F0020078B1094801F0AF
:101140000DF90A2001F0FAF8074801F007F90A2022
:1011500001F0F4F84FF4FA7001F0FEF9E0E7000056
:1011600008000020AC0000201001002010B500F0A5
:1011700001F810BD0CB500200190009033480068C4
:1011800040F480303149086000BF3048006800F406
:10119000003000900198401C0190009818B9019807
:1011A000B0F5A06FF1D12948006800F4003010B10B
:1011B0000120009001E0002000900098012843D118
:1011C0002348006840F01000214908600846006884
:1011D00020F0070008600846006840F00200086040
:1011E0001A484068194948600846406848600846FF
:1011F000406840F4806048600846406820F47C10F5
:1012000048600846406840F4E810486008460068B6
:1012100040F08070086000BF0C48006800F000706B
:101220000028F9D00948406820F0030007494860C9
:101230000846406840F00200486000BF034840682C
:1012400000F00C000828F9D10CBD0000001002408D
:101250000020024010B54FF0E020006901F062FF6D
:10126000012801D001F04EFC10BD000010B5002196
:1012700000200022214B5B6803F00C0121B10429FE
:1012800006D0082928D107E01D4B1E4C236027E01B
:101290001B4B1C4C236023E0184B5B6803F470105D
:1012A000164B5B6803F48032022303EB904022B9B3
:1012B000154B4343134C23600DE0104B5B6803F464
:1012C000003323B1104B43430E4C236003E00C4B1F
:1012D00043430C4C236003E0094B0A4C236000BFDE
:1012E00000BF064B5B68C3F30313084CE15C054B7E
:1012F0001B68CB40034C236010BD0000001002406F
:1013000000127A002400002000093D00280000207F
:1013100010B51348006840F0010011490860084604
:101320004068104908400E494860084600680E4968
:1013300008400B4908600846006820F480200860D7
:101340000846406820F4FE0048604FF41F008860A3
:10135000FFF70CFF4FF000600449086010BD00006B
:10136000001002400000FFF8FFFFF6FE08ED00E06D
:1013700021B1028842F00102028004E002884FF6A7
:10138000FE731A40028070470146888C7047818442
:1013900070470000002202881D4B98420ED01D4B62
:1013A00098420BD0B0F1804F08D01B4B984205D02B
:1013B0001A4B984202D01A4B984204D14FF68F73C1
:1013C0001A404B881A43174B984207D0164B984245
:1013D00004D04FF6FF431A40CB881A4302808B8813
:1013E00083850B8803850A4B98420BD0094B9842A2
:1013F00008D00E4B984205D00D4B984202D00D4BB1
:10140000984201D10B7A0386012383827047000042
:10141000002C01400034014000040040000800405E
:10142000000C00400010004000140040004001404B
:10143000004401400048014001F08CFA2549086051
:1014400046E001212448FFF7AFFC0446012C02D1FD
:10145000002022490870ECB920480078D0B9204813
:101460000078012804D0022806D003280CD107E018
:1014700002201B49087007E003201949087003E0A7
:1014800001201749087000BF00BF14480078401CB5
:101490001249087012480078012804D101210D4832
:1014A000006801F066FA0E480078022806D1022191
:1014B0000848006801F05DFAFFF788FC08480078EA
:1014C000032804D103210348006801F052FA00BF49
:1014D000B7E7000008000020000801400C000020D1
:1014E0000500002021B1828942F40052828104E08B
:1014F00082894DF6FF731A408281704702460020B0
:10150000B1F5007F00D100BF13880B400BB1012063
:1015100000E00020704700002DE9F04786B0054646
:101520000E460024A24600BFA1460027B08900B1A4
:1015300000BF2F462C8A4CF6FF700440F08804430D
:101540002C82AC894EF6F3100440B08831890843F0
:10155000718908430443AC81AC8A4FF6FF400440D4
:10156000B0890443AC8201A8FFF744FD1F488742BD
:1015700002D1DDF810A001E0DDF80CA0A88900F48C
:10158000004040B10AEBCA0000EB0A103168490084
:10159000B0FBF1F807E00AEBCA0000EB0A10316873
:1015A0008900B0FBF1F86420B8FBF0F004012009D9
:1015B000642101FB1089A88900F4004040B1322069
:1015C00000EBC900B0FBF1F000F00700044308E0B5
:1015D000322000EB09106421B0FBF1F000F00F00A5
:1015E00004432C8106B0BDE8F087000000380140BC
:1015F000C1F308028280704710B5044600F0EEF88F
:1016000038B100F07BF820B14FF0FF31206801F0D5
:101610005FFC10BD70B50546286800F06DFF002422
:101620000BE0084951F824102868884204D10020B2
:10163000044941F8240002E0641C052CF1D300BFEA
:1016400070BD0000F404002070B504460020206046
:10165000002514E0154850F8250078B905EB850001
:10166000134A02EB0011012001F077FA0F4941F80B
:101670002500084650F82500206002E06D1C052D6D
:10168000E8D300BF206830B900F0A8F818B10120F5
:1016900001F052FA2060002080F3118800BF20681A
:1016A00008B9002070BD0120FCE70000F404002010
:1016B0006403002010B5044600F090F840B100F03B
:1016C0001DF828B100231A461946206801F0F2FAE5
:1016D00010BD704710B504460DE000214FF080406A
:1016E000FFF755FE00BF4FF08040FFF74DFEB0F50D
:1016F0007A7FF8DB641E002CEFD110BD00BFEFF342
:10170000058008B9012070470020FCE71CB5FFF7F1
:101710004DFA01211E48FFF7FFFAFFF78BFBFFF799
:1017200055FB00F0C7FDFEF7A3FF00F0A5FDFFF796
:10173000EFFDFFF79BFD01210420FFF74BFC00208C
:1017400000900346802213A10190154801F088FC07
:10175000002000900346802212A10190154801F05C
:101760007FFC002000900346802213A101901648C0
:1017700001F076FC0020012103468022CDE9001013
:1017800012A1154801F06CFC01F036F800201CBDD8
:10179000000230005461736B4D61696E00000000FF
:1017A000391400084C4344313678325F4469737011
:1017B0006C6179003D0F000853657269616C5F448C
:1017C0006973706C617900001D11000852656164D5
:1017D0005F54656D70000000C910000810B501F07D
:1017E000A1FC022801D1012010BD0020FCE700006F
:1017F0002DE9F04105460E4620480768204800685C
:10180000001D00F0B6FD681CD8B9D6B11D49486866
:101810001B49096888601A4982680968CA601849C2
:101820000968091D8268516015490968091D8160B0
:10183000144A134909684A6111460968491C116034
:101840001AE07C190E4800684460BC4207D20C487C
:101850000168091D0C48006800F0D7FD0CE008483D
:101860000168091D0948006800F0CFFD08480068BC
:10187000844201D206480460BDE8F0816C0000207B
:1018800058000020B02D0020600000205C000020E7
:101890008800002010B5044600F0D2FD30480068F2
:1018A000401C2F4908602F48006840B92D4804604B
:1018B0000846006801280DD100F0ECF90AE02A483A
:1018C000006838B927480068C06AE16A884201D8D0
:1018D0002448046025480068401C244908600846E4
:1018E000006860642249E06A0968884202D9204998
:1018F000E06A0860E16A01EB81011E4A02EB8101A6
:101900004868A0608268E260211D82685160816041
:10191000E16A01EB8101174A02EB81026261E16A2F
:1019200001EB8101134A52F82110491CE26A02EBD3
:101930008202104B43F8221000F094FD0A48006820
:1019400068B108480068C06AE16A884207D24FF06F
:10195000805009490860BFF34F8FBFF36F8F10BDF0
:10196000680000205800002074000020840000203F
:10197000700000200029002004ED00E008B500F010
:101980005FFD0E480068A8B90D4800F02EFD0D4817
:1019900000F02BFD0A480C4908600A480B49086012
:1019A00000200B4B0B4A10210090052001F013F989
:1019B0000249086000F056FD08BD0000A0000020AC
:1019C000C42D0020D82D0020980000209C0000206D
:1019D000EC2D00203C2E002010B516E000F030FD6C
:1019E0000C48C068C468201D00F0C3FC0A480068A9
:1019F000401E0949086009480068401E0749086000
:101A000000F030FD204600F05FF804480068002830
:101A1000E4D110BD9C2D002068000020640000204F
:101A200070B504460D46206C70B1216CE06801442D
:101A3000E160D4E90210884201D32168E1602846C0
:101A4000226CE168FEF798FC70BD2DE9F041044678
:101A50000F4615464FF00008A66B206C48B9206869
:101A600000282CD1A06801F03BFC80460020A0603B
:101A700025E07DB93946226C6068FEF77DFC216C5B
:101A8000606808446060D4E90101884217D3206887
:101A9000606014E03946226CE068FEF76DFC216C52
:101AA000E068411AE1602168E068884203D2216C55
:101AB000A068411AE160022D01D106B1761E701CAA
:101AC000A0634046BDE8F08110B5044694F8590083
:101AD00030B9206B00F0D6FC204600F0D3FC06E0C5
:101AE00094F85900012802D1204600F0CBFC10BD2B
:101AF00001464A6A22B10A6B1268C2F1380000E05E
:101B0000002070470146084A126812680AB901228B
:101B100000E000220A600A6822B9034A1268D2680B
:101B2000106800E0002070479800002030B54FF4A6
:101B30000053154800F007042CB1C01D20F0070029
:101B4000114C041B1B1B0246104C226000240F4D3D
:101B50006C60D018083820F007000D4C206000247D
:101B60000B4D2D686C600A4D2D682C601146441A8F
:101B70004C60074C24680C60064D4C682C60064D88
:101B80004C682C6030BD00000009002038000020A7
:101B900040000020480000204400002000BFFFF764
:101BA0001BFF064800680128F9D94FF0805004490E
:101BB0000860BFF34F8FBFF36F8FF0E7002900205D
:101BC00004ED00E010B5044654B10020A060206090
:101BD0000021E16000231A461946204601F06AF808
:101BE00010BD2DE9F04106460D4617469846069C65
:101BF0000DB9246000E02760E663256401212046DA
:101C000001F008F884F84C80BDE8F0812DE9F05F20
:101C100081460E4690469A460A9F0C9C4FEA8801E0
:101C2000A522206BFEF7EDFBA8F10100216B01EB73
:101C3000800B2BF0070B7EB1002507E0715D04F1EE
:101C400034004155705D00B902E06D1C102DF5D3D4
:101C500000BF002143200155382F00D33727E7620A
:101C6000E764201D00F0CEFB04F1180000F0CAFB71
:101C70002461C7F13800A061646252464946584663
:101C800000F0E8FA20600B9808B10B980460BDE8FA
:101C9000F09F000010B5002407E004EB84010F4A18
:101CA00002EB810000F0A1FB641C382CF5D30C483A
:101CB00000F09BFB0B4800F098FB0B4800F095FBF5
:101CC0000A4800F092FB0A4800F08FFB04480949DB
:101CD000086004480849086010BD00000029002081
:101CE000602D0020742D0020882D00209C2D0020C8
:101CF000B02D00205C0000206000002010B50146DF
:101D0000164800E0006803688B42FBD30246436834
:101D100013448B4204D143684C682344436001461A
:101D20000A464B6813440468A34211D10C4C036863
:101D30002468A34208D04B680468646823444B605D
:101D400003681B680B6005E0054B1B680B6001E036
:101D500003680B60884200D0016010BD380000208D
:101D6000400000202DE9F04104460D4616461F466E
:101D70004FF0000865602461B5420CD8F01BA169E2
:101D8000884202D34FF0010811E0211D0948006884
:101D900000F03BFB0BE0BE4204D2BD4202D34FF049
:101DA000010804E0211D0448006800F02EFB4046B5
:101DB000BDE8F0819C0000209800002070B5054629
:101DC00000F03EFBA86B08B9012400E0002400F0FD
:101DD00049FB204670BD70B5054600F031FBA86B8D
:101DE000E96B884201D1012400E0002400F03AFBB5
:101DF000204670BD70B505460E460E480068C068A6
:101E0000C468201D00F0B5FA94F8280000F0040022
:101E100028B132462946204600F0D0F805E094F873
:101E2000280000F0FE0084F828002046216A884738
:101E300070BD00009800002070B586B077E0029871
:101E4000002805DA03AED6E90020B168904700BF4C
:101E5000029800286BDB049C606908B9012000E04F
:101E6000002010B9201D00F084FA01A800F0D2F87B
:101E7000054602980A2858D2DFE800F05705072ED9
:101E8000364706082F3700BF00BF00BF94F8280070
:101E900040F0010084F828000398A26981180346E5
:101EA0002A462046FFF75EFFA8B194F8280000F00C
:101EB000040038B10398A26981182A46204600F030
:101EC0007DF805E094F8280000F0FE0084F8280072
:101ED0002046216A884729E000BF94F8280000F0D6
:101EE000FE0084F8280021E000BF94F8280040F0AC
:101EF000010084F828000398A061A06941192B46CD
:101F00002A462046FFF72EFF10E094F8280000F044
:101F1000020018B9204600F0B5FA05E094F8280050
:101F200000F0FE0084F8280000E000BF00BF00229F
:101F300002A90448006800F049FF00287FF47FAF41
:101F400006B070BDA0000020F8B505460C4600F0B4
:101F5000A1FC684600F05EF80646009820BB44B934
:101F6000B54206D801F0F6FA31462846FFF742FF9F
:101F70001CE03CB10E480068006808B9012000E090
:101F800000200446A91B22460A48006800F0BEFA59
:101F900001F0E0FA50B94FF0805007490860BFF3F4
:101FA0004F8FBFF36F8F01E001F0D4FAF8BD00004E
:101FB0009C000020A000002004ED00E070B5044665
:101FC0000D46164604E0A06905442046216A88476C
:101FD000A06941192B4632462046FFF7C3FE002870
:101FE000F1D170BD09480068006808B9012000E01F
:101FF000002020B14FF0FF300549086005E003489C
:102000000068C06800680249086070475C000020F2
:102010008800002070B5044601F094F80546074892
:102020000068854204D200F00BF80120206001E036
:102030000020206001480560284670BDA8000020EF
:1020400070B508E00D480068C06804684FF0FF31C3
:102050002046FFF7CFFE09480068006808B9012054
:1020600000E000200028EDD004480568044800681E
:10207000024908600248056070BD00009800002019
:102080009C00002000BF102080F31188BFF34F8F09
:10209000BFF36F8F00BF00BFFEE710B503460020FF
:1020A00022B903EA010434B1012004E003EA010487
:1020B0008C4200D1012010BD08B500BF6846FFF773
:1020C00021FD044620460099FFF73EFFFFF7B4FECE
:1020D000F4E770B5044600F0B3F994F9455010E008
:1020E000606A08B9012000E0002038B904F124003A
:1020F00001F0ACF918B100F055FA00E003E0681EF9
:1021000045B2002DECDC00BFFF2084F8450000F054
:10211000A9F900F095F994F9445010E0206908B944
:10212000012000E0002048B904F1100001F08EF910
:1021300008B100F037FA681E45B200E001E0002D5A
:10214000ECDC00BFFF2084F8440000F08BF970BD88
:102150002DE9F04705464FF0000900F09BFB3048A1
:10216000006808B9FFF7E2FC75B105F00700C0F19F
:102170001008C8F1FF30A84201D2012000E0002081
:1021800008B9454400E00025012000EBE570002877
:1021900041D0002D3FD02348006885423BD8224ED5
:1021A0003046046801E0264624686068A84202D2EE
:1021B00020680028F7D11A48006884422BD0306884
:1021C00000F10809206830606068401B102807D9BA
:1021D00067196068401B786065603846FFF78EFDC0
:1021E000104960680968081A0E49086008460068C6
:1021F0000E490968884203D20A4800680B49086002
:10220000606840F00040606000202060084800687E
:10221000401C0749086001F09DF94846BDE8F08779
:10222000400000204400002038000020480000202A
:102230004C0000200648006830B10549096801F1EA
:102240005000096D491C016001480068704700009A
:1022500058000020001F4FF080730360001F21F022
:1022600001030360001F034B036014380260203831
:1022700070470000852000080EB501210846FEF7D2
:1022800099FE0020ADF80600ADF802004FF6FF7091
:10229000ADF804004720ADF8000000208DF80800DC
:1022A00069464FF08040FFF775F801218807FFF776
:1022B0005FF80EBD00B585B001210420FEF78AFE4F
:1022C00001218803FEF786FE4FF40070ADF8100080
:1022D00018208DF8130003208DF8120004A915486A
:1022E000FEF78EFC4FF48060ADF8100004208DF8EE
:1022F000130003208DF8120004A90E48FEF780FC9D
:102300004FF4165000900020ADF80C000C20ADF8F2
:102310000A000020ADF80800ADF80600ADF8040092
:1023200069460548FFF7F8F801210348FFF7DAF896
:1023300005B000BD000801400038014010B504465A
:1023400021460548FFF754F900BF80210248FFF7F6
:10235000D5F80028F9D010BD0038014010B504466A
:1023600003E014F8010BFFF7E9FF20780028F8D10B
:1023700010BD01460A69D1E901309860D1E9010335
:1023800058605068884201D1886850600020086118
:102390001068401E10601068704700000549096809
:1023A000886904490968C96AC1F13801014A12689B
:1023B0009161704758000020034B0360034B0B6092
:1023C000802313607047000008050020640500208A
:1023D000034B0360034B0B605023136070470000F6
:1023E00064070020C0070020704700F10801416029
:1023F0004FF0FF31816000F10801C16001610021EF
:102400000160704700210161704710B502460B68FA
:102410005C1C0CB9106907E002F1080000E040689C
:10242000446824689C42FAD944684C604C68A160B6
:10243000886041600A611468641C146010BD00006B
:1024400000BF102080F31188BFF34F8FBFF36F8F51
:1024500000BF03480068401C014908607047000045
:102460005400002006480068401E054908600846E0
:10247000006820B9002080F3118800BF00BF7047BA
:102480005400002070B506463546E6B1083D2C469E
:102490006068C00FB8B12068A8B9606820F000403B
:1024A000606000F0F7F90849606809680844064967
:1024B00008602046FFF722FC04480068401C0349DE
:1024C000086001F047F870BD440000205000002073
:1024D00000204FF0E02108618861064800684FF451
:1024E0007A71B0FBF1F0401E4FF0E0214861072007
:1024F000086170472400002070B50446254695F811
:10250000460010B92846FFF7BDFF70BD2DE9F04128
:1025100005460E4617462C46FFF792FF94F94400F5
:10252000401C10B9002084F8440094F94500401C78
:1025300010B9002084F84500FFF794FFA06B28B97C
:102540003A46314604F1240000F042F82046FFF7F5
:10255000C0FDBDE8F081000070B50446002544B11F
:1025600000F098F900212046FFF742F900F0F2FF51
:1025700005463DB94FF0805003490860BFF34F8FC7
:10258000BFF36F8F70BD000004ED00E003490968E0
:102590000160034909684160704700008000002025
:1025A0006C00002001200149086070477C00002079
:1025B00070B505460C460548016818312846FFF7F6
:1025C00024FF01212046FFF713F970BD58000020B9
:1025D00070B504460E46154660680F490968C86123
:1025E0000D49826809680A620B49096818318268D6
:1025F00051600949096818318160074909688C628E
:102600002168491C21600DB14FF0FF362946304644
:10261000FFF7EEF870BD00005800002070B50446CA
:102620000D46164645F000400F490968886160680C
:102630000D490968C8610C49826809680A620A493B
:10264000096818318268516007490968183181604A
:10265000054909688C622168491C216001213046C6
:10266000FFF7C6F870BD0000580000202DE9F047C4
:1026700006460F4634464FF00109002E4FD0E06C5D
:10268000B84201D23D4600E0E56CE06AA84246D07F
:10269000206D012843D1D4F82C80E562A06900F0B8
:1026A000004010B9C5F13800A06108EB88011D4A4F
:1026B00002EB81016069884201D1012000E0002025
:1026C00068B3201DFFF755FE1749E06A0968884284
:1026D00002D91549E06A0860E16A01EB8101114AFB
:1026E00002EB81014868A0608268E260211D826877
:1026F00051608160E16A01EB81010A4A02EB8102CB
:102700006261E16A01EB8101064A52F82110491C1D
:10271000E26A02EB8202034B43F8221000BFBDE8DD
:10272000F0870000002900207000002070B50246EC
:102730000B4643F000411160D0681169D2E90154A1
:10274000AC60D2E901456C604C68944201D1946858
:102750004C60002414610C68641E0C604169D0E96F
:102760000245A560D0E902546560041D4D68A5428C
:1027700001D1C4684C60002545610C68641E0C6082
:10278000194CC16A2468A14202D9174CC16A216060
:10279000C46A04EB8404154D05EB84046168816010
:1027A0008D68C560041D8D686C608C60C46A04EB24
:1027B00084040E4D05EB84054561C46A04EB840472
:1027C0000A4D55F82440641CC56A05EB8505074E83
:1027D00046F82540064CC16A2468E46AA14202D941
:1027E0000121044C216070BD7000002000290020F0
:1027F000580000207C00002010B586B00020059015
:10280000049003AA04A905A8FFF7D6FD0022DDE97C
:1028100004101346CDE90021029016A11748039A2F
:1028200000F054FC164908600846006808B101240D
:1028300000E00024012C02D100F038FF0446012CF6
:1028400014D100BF102080F31188BFF34F8FBFF366
:102850006F8F00BF4FF0FF300A49086001200A491E
:10286000086000200949086000F032F90848006853
:1028700006B010BD49444C45000000009D1B0008F7
:102880008C00002088000020740000206C000020D4
:102890009000002002480068401C01490860704711
:1028A0009400002070B52648006818B10120254921
:1028B000086043E000202349086023480068046B57
:1028C0004FF0A5352068B0F1A53F0BD16068B0F19D
:1028D000A53F07D1A068B0F1A53F03D1E068B0F1F2
:1028E000A53F05D01848016834310068FFF77CFD2A
:1028F0001648016800E0491E01EB8100144A52F8B5
:10290000200008B9012000E000200028F3D101EBED
:1029100081020F4B03EB820042685268426000F173
:1029200008024368934202D142685268426042689A
:10293000D268054B1A600548016000BF70BD0000F9
:10294000940000207C00002058000020700000202F
:102950000029002010B52020FFF7FAFB044634B10F
:1029600000202060201DFFF740FD0020207720463A
:1029700010BD2DE9FE4F06468946002001903446E1
:10298000009004F1040B0BF108000290FFF782FFA6
:10299000DBF80C70206840EA0900206026E0D7F8D8
:1029A00004A03D680020009005F07F4825F07F4599
:1029B00008F0806028B92068284040B101200090CC
:1029C00005E020682840A84201D10120009000982D
:1029D00058B108F0807010B1019828430190206828
:1029E00040F000713846FFF7A1FE57460298874233
:1029F000D5D1206801998843206000F0ABFD2068A4
:102A0000BDE8FE8F2DE9FF5F80460E4617469946CA
:102A1000DDF838A044464FF0000B00200190FFF78E
:102A200039FF206800904A4631460098FFF735FB91
:102A30000390039830B1009DDA46CFB12068B043CF
:102A4000206015E0BAF1000F03D1009D0120019034
:102A50000EE00FB14BF0807BB9F1000F01D04BF0CD
:102A6000806B46EA0B015246201DFFF7D7FD00257B
:102A700000F070FD0290BAF1000F22D0029838B930
:102A80004FF0805011490860BFF34F8FBFF36F8F35
:102A9000FFF784FC054605F0007080B9FFF7D0FC15
:102AA00025684A4631462846FFF7F7FA18B117B1AC
:102AB0002068B043206001200190FFF7D3FC25F08F
:102AC0007F45284604B0BDE8F09F000004ED00E01B
:102AD00010B50A48006840F47F00084908600846BD
:102AE000006840F07F400860FFF7F2FC00200449D6
:102AF0000860FDF763FB002010BD000020ED00E042
:102B00005400002010B500BF102080F31188BFF3DF
:102B10004F8FBFF36F8F00BF00F01AFB18B14FF05B
:102B200080500449086000BF002080F3118800BF76
:102B300010BD000004ED00E02DE9F041044601263F
:102B4000002722460021012000F01CF805462846F7
:102B5000FFF738F82846BDE8F0812DE9F843044630
:102B60000D4601274FF000082B4600221146012098
:102B7000009400F030F806463046FFF723F8304660
:102B8000BDE8F8832DE9F84305460E4617460024B4
:102B9000F5B1601EB0FBF5F0B04219D305FB06F0AD
:102BA00010F1510F14D805FB06F909F15000FFF799
:102BB000CFFA044664B1A04608F15008002084F81A
:102BC00046003B464246314628460094FFF709F846
:102BD0002046BDE8F8832DE9F84380460D461646A9
:102BE0001C46DDF820900027B8F1000F0FD074B11B
:102BF00006B165B106B955B92746012087F84600E8
:102C00004B463246294640460097FEF7EAFF3846D3
:102C1000BDE8F8832DE9F04105460E4601272C4614
:102C2000002C41D0E06B00283ED0B91EE06BB1FB18
:102C3000F0F0216C884237D3FFF702FCD4E90F1281
:102C4000206801FB0200A0600020A0632068606093
:102C5000E06B401E226C216800FB0211E160FF2046
:102C600084F8440084F845009EB9206908B9012021
:102C700000E00020A8B904F1100000F0E7FB80B1EB
:102C80004FF080500A490860BFF34F8FBFF36F8F3A
:102C900007E004F11000FFF7A8FB04F12400FFF7A0
:102CA000A4FBFFF7DFFB00E000273846BDE8F0811A
:102CB00004ED00E02DE9FF4383B0074688461D463A
:102CC0004FF000093C4600BFFFF7BAFBA06BE16B79
:102CD000884201D3022D28D12A4641462046FEF7DC
:102CE000B4FE0646606A08B9012000E0002068B919
:102CF00004F1240000F0AAFB88B14FF08050324963
:102D00000860BFF34F8FBFF36F8F08E03EB14FF005
:102D100080502D490860BFF34F8FBFF36F8FFFF7CF
:102D2000A1FB012007B0BDE8F083059818B9FFF7B3
:102D300099FB0020F6E7B9F1000F04D101A8FFF7D5
:102D400025FC4FF00109FFF78DFBFFF7A3FDFFF70F
:102D500077FB94F94400401C10B9002084F844002B
:102D600094F94500401C10B9002084F84500FFF795
:102D700079FB05A901A800F043F9F0B92046FFF757
:102D80002AF8A0B104F110000599FFF711FC2046C4
:102D9000FFF79FF900F0DEFB002895D14FF080503F
:102DA00009490860BFF34F8FBFF36F8F8CE7204650
:102DB000FFF78FF900F0CEFB86E72046FFF789F991
:102DC00000F0C8FB0020ADE704ED00E02DE9F7417D
:102DD00083B005460F464FF000082C4600BFFFF7B2
:102DE0002FFBA66BF6B139462046FEF719FE701E82
:102DF000A063206908B9012000E0002060B904F157
:102E0000100000F023FB38B14FF080502F490860CC
:102E1000BFF34F8FBFF36F8FFFF724FB012006B086
:102E2000BDE8F081059818B9FFF71CFB0020F6E714
:102E3000B8F1000F04D101A8FFF7A8FB4FF001087B
:102E4000FFF710FBFFF726FDFFF7FAFA94F94400AD
:102E5000401C10B9002084F8440094F94500401C3F
:102E600010B9002084F84500FFF7FCFA05A901A875
:102E700000F0C6F8F0B92046FEF7A0FFA0B104F1BB
:102E800024000599FFF794FB2046FFF722F900F094
:102E900061FB0028A3D14FF080500C490860BFF3BC
:102EA0004F8FBFF36F8F9AE72046FFF712F900F0BC
:102EB00051FB94E72046FFF70CF900F04BFB20464E
:102EC000FEF77CFF00288AD00020A8E704ED00E090
:102ED0002DE9F34182B0054600272C46B84600BFD5
:102EE000FFF7AEFAA66BFEB1701EA063206810B9A2
:102EF000FFF7A0F9A060206908B9012000E00020D8
:102F000060B904F1100000F0A1FA38B14FF0805020
:102F10003A490860BFF34F8FBFF36F8FFFF7A2FAF4
:102F2000012004B0BDE8F081039818B9FFF79AFAC0
:102F30000020F6E71FB96846FFF728FB0127FFF7D7
:102F400091FAFFF7A7FCFFF77BFA94F94400401CC5
:102F500010B9002084F8440094F94500401C10B9D1
:102F6000002084F84500FFF77DFA03A9684600F0C9
:102F700047F840BB2046FEF721FFF0B1206838B982
:102F8000FFF75EFAA06800F0F5F98046FFF76AFAED
:102F900004F124000399FFF70BFB2046FFF799F893
:102FA00000F0D8FA00289BD14FF0805013490860F8
:102FB000BFF34F8FBFF36F8F92E72046FFF789F87B
:102FC00000F0C8FA8CE72046FFF783F800F0C2FA59
:102FD0002046FEF7F3FE002882D0B8F1000F0BD098
:102FE000FFF72EFA2046FEF783FD06463146A0681D
:102FF000FFF73CFBFFF736FA002092E704ED00E014
:1030000070B506460C46FFF71BFA13480268706855
:10301000131A2068401C08B9002519E00F493068D0
:103020000968884206D07068904203D801250020C4
:1030300020600DE02068984207D92068C01A2060FF
:103040003046FFF7A3FA002502E0002020600125AA
:10305000FFF708FA284670BD6C00002080000020B1
:103060002DE9FF4F85B0804689461746DDE912AB52
:10307000B800FFF76DF8064676B15C20FFF768F8F8
:1030800004462CB15C212046FDF7E5F9266304E0F7
:103090003046FFF7F7F900E000248CB1002084F8F7
:1030A0005900CDE900ABCDE902403A4649464046D9
:1030B000089BFEF7ABFD2046FEF7ECFB012501E087
:1030C0004FF0FF35284609B0BDE8F08F2DE9F04FED
:1030D00085B00746884691469A46DDE90EB6109CB3
:1030E000CCB1C6B125465C212846FDF7B4F92E6364
:1030F000022085F85900002004A953464A46CDE92C
:1031000000B1CDE9025041463846FEF77FFD284622
:10311000FEF7C0FB01E000200490049805B0BDE874
:10312000F08F00000549096809B9012005E004494C
:10313000096809B9022000E00020704774000020EF
:103140009400002001490868704700006C000020CE
:103150002DE9F04100275748006800287DD15648E6
:103160000068451C544805608DB95448D0F800806B
:1031700053480068514908605148C0F800805148E0
:103180000068401C4F490860FEF72CFF00BF4E4806
:103190000068854275D300BF48480068006808B9D8
:1031A000012000E0002020B14FF0FF3046490860C8
:1031B00066E042480068C068C4686668B54202D2EA
:1031C000414806605CE06069D4E902128A60D4E993
:1031D00002214A60211D42688A4201D1E1684160B2
:1031E000002262610168491E0160A06A98B1A06A6C
:1031F000D4E907128A60D4E907214A6004F1180172
:1032000042688A4201D1216A41600022A2620168BB
:10321000491E016000BF2D49E06A0968884202D951
:103220002A49E06A0860E16A01EB8101284A02EB61
:1032300081014868A0608268E260211D8268516057
:103240008160E16A01EB8101214A02EB8102626146
:10325000E16A01EB81011E4A00E022E052F82110F0
:10326000491CE26A02EB8202194B43F82210194909
:10327000E06A0968C96A88428ED901278CE700E0B4
:1032800000BF14480068C06A00EB8000104951F884
:103290002000012800D901270F48006800B101274C
:1032A00004E00E480068401C0C4908603846BDE840
:1032B000F0810000940000206C0000205C000020E1
:1032C00060000020800000208800002070000020A6
:1032D00000290020580000207C00002078000020F9
:1032E00070B505462C460026002D3CD0206D401EB2
:1032F0002065E16CE06A884235D0206D98BB201DC6
:10330000FFF737F8E06CE062E06AC0F13800A061D6
:103310001649E06A0968884202D91449E06A0860DF
:10332000E16A01EB8101124A02EB81014868A06069
:103330008268E260211D826851608160E16A01EB70
:1033400081010B4A02EB81026261E16A01EB8101BA
:10335000074A52F82110491CE26A02EB8202044B30
:1033600043F822100126304670BD00007000002096
:103370000029002070B505462C460026002D5CD0A3
:103380002F49E06A0968C96A88424FD2A06900F0F3
:10339000004028B92A480068C06AC0F13800A0611E
:1033A000E16A01EB8101274A02EB810160698842F1
:1033B00001D1012000E0002088B3201DFEF7D9FFD5
:1033C0001F480068C06AE0621F49E06A09688842D5
:1033D00002D91D49E06A0860E16A01EB8101194ADE
:1033E00002EB81014868A0608268E260211D82686A
:1033F00051608160E16A01EB8101124A02EB8102B6
:103400006261E16A01EB81010E4A52F82110491C08
:10341000E26A02EB82020B4B43F8221004E0FFE762
:1034200007480068C06AE062012606E00449E06CD3
:103430000968C96A884200D20126304670BD000082
:1034400058000020002900207000002070B50346BD
:10345000D868C168886AD1E90745A560D1E90754F1
:10346000656001F118044568A54201D10C6A446009
:1034700000258D620468641E0460304800680028DE
:103480003CD14869D1E90245A560D1E902546560A3
:103490000C1D4568A54201D1CC68446000254D61F2
:1034A0000468641E0460264CC86A2468A04202D9DD
:1034B000234CC86A2060CC6A04EB8404214D05EBE0
:1034C0008404606888608568CD600C1D85686C60C8
:1034D0008460CC6A04EB84041A4D05EB84054D61CD
:1034E000CC6A04EB8404174D55F82440641CCD6A63
:1034F00005EB8505134E46F8254010E0124C606838
:10350000C86185680D6201F1180485686C6084608B
:103510000D4D8D622C462468641C2C6000BF0B4C42
:10352000C86A2468E46AA04204D901220120084C38
:10353000206000E00022104670BD000094000020D2
:103540007000002000290020882D00205800002055
:103550007C00002070B500240026FEF771FF4A4869
:103560000068401E484908600846006800287DD170
:1035700046480068002879D05AE04548C068C468C9
:10358000A06AD4E907128A60D4E907214A6004F1ED
:10359000180142688A4201D1216A41600022A26278
:1035A0000168491E01606069D4E902128A60D4E9A9
:1035B00002214A60211D42688A4201D1E1684160CE
:1035C000002262610168491E01603249E06A0968AF
:1035D000884202D92F49E06A0860E16A01EB810163
:1035E0002D4A02EB81014868A0608268E260211DDB
:1035F000826851608160E16A01EB8101264A02EB39
:1036000081026261E16A01EB8101234A52F82110D3
:10361000491CE26A02EB82021F4B43F822101F4949
:10362000E06A0968C96A884202D301201C4908601F
:103630001748006808B9012000E0002000289CD04D
:103640000CB1FEF7CFFC1748056865B100BFFFF766
:103650007FFD10B10120124908606D1E002DF6D1CA
:103660000020104908600E48006800E008E038B10A
:10367000012630070C490860BFF34F8FBFF36F8FEF
:10368000FEF7F0FE304670BD940000206800002078
:10369000882D002070000020002900205800002004
:1036A0007C0000207800002004ED00E010B586B01A
:1036B0000024FEF763F910480068D0B1002005909F
:1036C000049003AA04A905A8FEF782FE2822DDE9DA
:1036D00004100023CDE90021029008A10948039AB3
:1036E000FFF7F4FC084908600846006800B10124AF
:1036F00000BF204606B010BDA0000020546D72200F
:1037000053766300B9200008A40000202C3700087D
:1037100000000020AC00000028010008D837000895
:10372000AC00002044340000440100080000000008
:103730000003000000000000000000000001020380
:103740000401020304060708090204060800000039
:1037500000A24A040000000000000000010203046F
:10376000060708090000000000000000000000003B
:103770000000000000000000000000000000000049
:10378000AAAAAAAA00000000000000000000000091
:103790000000000000000000000000000000000029
:1037A0000000000000000000000000000000000019
:1037B00000000000000000000000000037000000D2
:1037C00000000000000000000000000000000000F9
:0837D0000000000000000000F1
:0400000508000231BC
:00000001FF
